:020000040800F2
:10000000000C0020B1010008B9010008BB01000884
:1000100000000000000000000000000000000000E0
:10002000000000000000000000000000BD0100080A
:100030000000000000000000BF010008C10100082E
:10004000C301000800000000C3010008C30100084C
:10005000C301000899040008C3010008C301000897
:1000600000000000C3010008C3010008C30100082C
:10007000C3010008C3010008C3010008000000001C
:10008000C30100083D120008C3010008C3010008B5
:10009000C3010008F1110008C3010008C3010008F2
:1000A000C3010008C3010008C3010008C301000820
:1000B000C30100086D13000800F002F800F04CF8CE
:1000C00012A030C8083824182D18AC4201D100F015
:1000D00043F80FCCA246AB460CA730CF2D1B083FF0
:1000E0003F197C427F1E54442D090426F441641EAE
:1000F000AC4201D300F030F80126334200D0FB1AA5
:100100003343984754465D46DFE70000C81A0000B5
:10011000E81A0000103A02D378C878C1FAD852071A
:1001200001D330C830C101D504680C6070470000AD
:10013000704700000023002400250026103A01D358
:1001400078C1FBD8520700D330C100D50B6070478F
:100150001FB51FBD10B510BD00F06BF91146FFF7BC
:10016000F7FF01F011FB00F083F903B4FFF7F2FF92
:1001700003BC00F089F9000070B505460C46164630
:1001800002E00FCC0FC5103E102EFAD2082E02D37B
:1001900003CC03C5083E042E07D301CC01C5361F8E
:1001A00003E021782970641C6D1C761EF9D270BDA5
:1001B0000748804707480047FEE7FEE7FEE7FEE7FF
:1001C000FEE7FEE704480549034A054B7047000077
:1001D000ED110008B900000800080020000C002004
:1001E00000080020034610B50B439B070FD1042ADB
:1001F0000DD308C810C9121FA342F8D018BA21BAEB
:10020000884201D9012010BD0020C04310BD002A42
:1002100003D0D30703D0521C07E0002010BD0378A1
:100220000C78401C491C1B1B07D103780C78401C20
:10023000491C1B1B01D1921EF1D1184610BDF8B507
:10024000042A2CD3830712D00B78491C0370401C5E
:10025000521E83070BD00B78491C0370401C521EA2
:10026000830704D00B78491C0370401C521E8B0777
:100270009B0F05D0C91ADF002023DE1B08C90AE046
:10028000FFF77AFFF8BD1D4608C9FD401C46B44083
:100290002C4310C0121F042AF5D2F308C91A521EAB
:1002A000F0D40B78491C0370401C521EEAD40B7822
:1002B000491C0370401C012AE4D409780170F8BD80
:1002C000002203098B422CD3030A8B4211D3002353
:1002D0009C464EE003460B433CD4002243088B422D
:1002E00031D303098B421CD3030A8B4201D39446BA
:1002F0003FE0C3098B4201D3CB01C01A52418309AD
:100300008B4201D38B01C01A524143098B4201D366
:100310004B01C01A524103098B4201D30B01C01A91
:100320005241C3088B4201D3CB00C01A524183080B
:100330008B4201D38B00C01A524143088B4201D338
:100340004B00C01A5241411A00D201465241104698
:1003500070475DE0CA0F00D04942031000D340420D
:1003600053409C46002203098B422DD3030A8B4243
:1003700012D38901FC2212BA030A8B420CD38901E1
:1003800092118B4208D3890192118B4204D38901C7
:100390003AD0921100E08909C3098B4201D3CB0105
:1003A000C01A524183098B4201D38B01C01A5241BA
:1003B00043098B4201D34B01C01A524103098B42BE
:1003C00001D30B01C01A5241C3088B4201D3CB00A9
:1003D000C01A524183088B4201D38B00C01A52418C
:1003E000D9D243088B4201D34B00C01A5241411A63
:1003F00000D201465241104663465B1001D3404291
:10040000002B00D54942704763465B1000D3404241
:1004100001B50549002802DC491C084000E00846F7
:10042000C046C04602BD00BFFFFFFF7F7047704758
:100430007047754600F024F8AE46050069465346FD
:10044000C008C000854618B020B5FFF7BBFE60BCF1
:10045000B64600260027C0C5C0C5C0C5C0C5C0C5BA
:10046000C0C5C0C5C0C5403D490849008D4670475C
:1004700010B50446C046C0462046FFF776FE10BDC4
:10048000004870472800002001491820ABBEFEE755
:10049000260002007047000080B5164800688007FB
:1004A00000280DD5FFE713490220086010480068B6
:1004B000002804D0FFE70E4800688047FFE700E00F
:1004C000FFE780BD0C4A1168022081431160094991
:1004D0000860704781B000900098054908600548A1
:1004E00002220260044908681043086001B07047A6
:1004F000E4070020101802408018024080B582B046
:100500000B490868FF22120290430860094A1068EC
:10051000022108431060084A106808431060052053
:10052000019000F0EBFF019800F096FF02B080BD53
:1005300060180240001802400418024080B5FFF71E
:10054000C1FF00F015F800F0F5FE00F001F880BDE5
:1005500080B50548054B01214902002200F012FC3C
:1005600000F060FC80BDC046D1000020F10800080A
:100570003D4908680222D2431040086039490868A2
:10058000104008607047C04680B582B01C480078B3
:10059000002801D0FFE730E01A49086801220192E3
:1005A000530418430860184908681843086008682D
:1005B00098430860154802604D4900200860144BBC
:1005C0003F21196013490860134914480860144911
:1005D0000868D2031043086015200090022100F043
:1005E000CBFF009800F04CFF01980E4908600E4ABE
:1005F0001060086002490870FFE702B080BDC04685
:10060000A307002040100240301002402044014067
:1006100028440140184401402C440140FFFF0000E1
:1006200044440140004401401444014080B582B07C
:100630000190009101982B490860009808490860D2
:10064000084A116802208143116007490860074881
:1006500000682549086000F00BF802B080BDC04674
:10066000E8070020104401400C44014024440140AC
:1006700083B01C48006802901B48006801900298F3
:1006800001210904884208D8FFE70198029940181F
:1006900080B201900020029018E0029801214904E4
:1006A00088420DD8FFE70298400800900198009911
:1006B000401880B2019000990298401A029004E01C
:1006C00002980A4940180290FFE7FFE7029805499F
:1006D000086001980449086001980549086003B062
:1006E0007047C046A4070020A80700200000FFFFB5
:1006F0003444014080B50B480078012804D0FFE75E
:10070000094800F057FCFFE708490878401C0870CA
:10071000044901200870FFF7D5FE00F0DFFBFFF76A
:1007200027FF80BDD0000020C4190008A1070020C9
:10073000F0B591B010905D490191002004900860DF
:100740005B49029108601D20039000F06BFE049845
:100750005849087072B610988078102105910840A9
:1007600055490860554906910868042207921043CC
:100770000B229043086052480890006803210991B9
:10078000C9430A9108400B9010988078C006C10FA9
:1007900002200C9001220D9200290E9001D10D989B
:1007A0000E900D9D059B029C019E0A9F089A0B9935
:1007B0000E98091806981160052109070A683A4041
:1007C0000A60006840273843B0229043069A1060C0
:1007D000086808221043079A9043086062B6394AB5
:1007E0001068E90408431060374802680A43026051
:1007F00002688A43049902600998344A11601160C2
:10080000334A1760334F396031602160109989781D
:1008100001404C1E60424441481E814188026402EE
:100820000019090340182C4908600868184308603B
:1008300008682A4B1860109880780407A60F771E66
:100840007C426741741EA641099C76033F03F6195A
:10085000C006C70F3804361803987F04F6190F96A0
:100860000F9E1F4F3E60E4021E4E3460109C26789F
:1008700064782402A6191C4C7443EE03A419240CBA
:100880001A4E34600C682C430C600968196085218D
:100890000901116000F0B0FD0C99039800F0AAFE68
:1008A000039800F001FE11B0F0BDC046F007002033
:1008B000EC070020B0070020180000502000005076
:1008C0000C0000503C1002402C100240440002403A
:1008D000204C0040B4070020AC070020004C004032
:1008E000044C0040084C0040C42000000C4C004068
:1008F00080B598B0149014992F48304A00F0E8FF62
:1009000014901498002803D1FFE7FFF721FE09E2B5
:100910002A4813902A49002008701498062800D20B
:10092000CCE11498CE2800D9C8E113980078149926
:10093000884200D0C2E1139814994018801E159087
:100940001599087849780902401809901398149964
:10095000891E00F029FD01460998884200D0ADE1CA
:10096000139840788009089000280AD0FFE708987B
:10097000012800D12FE10898801E022800D22BE127
:100980009BE113988178C07800024018EC49401828
:100990000790042800D91DE10798810001A0405864
:1009A0008746C046C5090008DF090008650A000837
:1009B000F50A00085B0B0008D1000020D1020020DE
:1009C000D2040020DF480078002804D0FFE7EA487E
:1009D00000F0F0FAFFE7DB4900200870FAE0D948A0
:1009E000007802280CD0FFE7D6480078012807D00D
:1009F000FFE7139840783F2108403F2801D0FFE7E8
:100A0000E8E0D9490878401C087000F0FBFA502152
:100A1000FFF756FC642048437D21C9004118D348A4
:100A200001600068D249FFF701FEBF4906910A2024
:100A3000087048783F221040403048704878104392
:100A400048700420C87081208870C4480068020E75
:100A5000CA71020C8A710871000A4871C548FFF713
:100A600039FDB7E013980279417909028918827932
:100A70001204C079000680184018B84909688842F5
:100A800001D0FFE7A6E0B6490878401C087013982B
:100A9000007A3F210840A7490870AA480078022838
:100AA00004D0FFE7AF4800F085FAFFE7A549022030
:100AB0000870A5480068A54908609B4905910B206E
:100AC000087048783F221040403048704878104302
:100AD00048700420C87082208870A0480068020E08
:100AE000CA71020C8A710871000A48719148007835
:100AF00008726FE093480078022809D1FFE78D481B
:100B00000078139949783F221140884201D0FFE7CD
:100B100060E01398027941790902891882791204F8
:100B2000C07900068018401812908B48006812990E
:100B3000884209D3FFE788480068002804D0FFE70F
:100B400082490020086007E07F4800687F4908600C
:100B5000129881490860FFE73CE07A480078022853
:100B600009D1FFE773480078139949783F22114073
:100B7000884201D0FFE72DE07348006873490860A0
:100B800013980078801F11901198811D6648049079
:100B9000017041783F2319404031417065490A781E
:100BA00041781A40C0231940891841700421C1704E
:100BB00084218170664A1188491C1180119B654A05
:100BC0001188C91811801399091D119A001DFFF78A
:100BD00036FBFFE771E070E01398801C0F905348DC
:100BE0000E90139840783F2108401090FFE70F982F
:100BF000411C0F9100780DA908800F98421C0F929C
:100C0000007802020D98104308800D980E998A1CF6
:100C10000E9208801098401E10901098002801D164
:100C2000FFE700E0E3E70F98411C0F91007840498F
:100C300008700F98411C0F9100780CA908700F984C
:100C4000411C0F9100780BA908700F98411C0F915F
:100C500000780AA9087013984078800903282BD1DE
:100C6000FFE70BA8007833490978884224D1FFE7D1
:100C70000CA8007803281FD1FFE72F490868401C03
:100C80000860294803902321017041783F231940CF
:100C90004031417027490A7841781A40C0231940F1
:100CA000891841700221C17000218170001D234903
:100CB0001D22FFF7C4FAFFE7FFE7FFE71A480078B5
:100CC00000282BD0FFE7184802900178891E0A18E7
:100CD000019200F069FB019902460298179116A94A
:100CE0000A80169A179B1A704978179A51700178E2
:100CF000224A00F0ADF8029840788009012809D115
:100D0000FFE709488178C078000240181C498842F2
:100D100003D0FFE700F0E2F8FFE702E0FFF718FC7E
:100D2000FFE7FFE718B080BDD20400208800002054
:100D3000F4070020C8000020FC0700200400002069
:100D400080FBFFFFD0000020D4070020E007002038
:100D5000F6070020F8070020BC070020CC00002088
:100D6000A0070020BC190008A2070020D807002017
:100D7000F50600083D050008CC190008490E0008DA
:100D80008104000010B584B00390029101A80270A4
:100D9000009300992B4A11605B4909685B4A116016
:100DA000474A00211160116072B605210A071168D7
:100DB00003239943116062B6424A38211160424AC6
:100DC000154911600399424A11600299414A116024
:100DD0000299124A11600078002806D0FFE73849CE
:100DE000A0200860A120086005E035498020086047
:100DF00081200860FFE7FFE70948006880060028B7
:100E000003D5FFE704480068F6E761208001324916
:100E1000086004B010BDC046244C0040B407002058
:100E20001C4C004007480068002804D0FFE7224916
:100E300001200870FFE73448006804210843334963
:100E400008607047EC07002080B5FFF781FB80BD8C
:100E500080B584B003900291019203980299154ADB
:100E6000009200F01DFD0146009802910390124986
:100E7000002008700199114A116023490968234A2A
:100E800011600F49086008600E4A392010600E4A50
:100E90000E48106003980E4A106002980D4A1060C8
:100EA00090200860912008603120C0010A49086044
:100EB00004B080BDA0050020B0070020F00700208E
:100EC000440002400C0802404C000240284C004004
:100ED0005000024048000240084C004009480122EE
:100EE000027072B608480068482108430749086044
:100EF000052001070868022318439043086062B682
:100F00007047C046B8070020AC070020004C0040E6
:100F100080B501200103264A116005210A071168E6
:100F200003231B0699430306C91811601F49087063
:100F3000014800F03FF880BDCC1900081B4800783C
:100F4000002801D1FFE72FE02C480168491C01600F
:100F500000682949C988884201D2FFE724E027496F
:100F60000020086026480168491C01600068224989
:100F70008988884204D3FFE7214900200860FFE701
:100F80001D4800681E490968C840C007002805D0F0
:100F9000FFE7012000070649086004E00120000384
:100FA00003490860FFE7FFE77047C046C00700201D
:100FB0001800005080B582B0019001990E480822B7
:100FC000FFF710F9002801D1FFE712E0019842680D
:100FD00009494A60006808600849002008600198D3
:100FE0008088401E064A10600198C088401E086034
:100FF000FFE702B080BDC046C8070020C40700203C
:10100000D00700200A4802680A4951430A4A891851
:10101000016000687047C04681B0009000980449A4
:1010200008600099034848430349401801B07047DD
:10103000000000206D4EC6413930000010B584B06C
:1010400089490020086050495048086050490868A4
:101050000122104308604F490868104308604E4958
:1010600008681307184308604C4908684C4B18403F
:101070004C4BC01808604C490868120410430860C3
:10108000FFE7494800688003002801D4FFE7F8E73C
:10109000454908680122120690430860FFE742486C
:1010A00000688001002801D5FFE7F8E73F49404884
:1010B0000860404A002010603B4B1868012214066B
:1010C000204318600868120710430860FFE736489D
:1010D00000688001002801D4FFE7F8E73549086877
:1010E00002221043052290430860FFE73148006860
:1010F00038210840102801D0FFE7F7E72E4908689B
:101100002F2210430860032148022C4A10602C4A09
:10111000106801230293184310601F4A1068DC0610
:10112000204310601068102420431060254A106886
:10113000204310601068A0431060234A0420106010
:1011400022480360224C3F20206022480390036025
:10115000214C224820601068184310601120019033
:1011600000F086FA019800F0B3F9029A0399086832
:10117000104308601A491B480860F120C0021A4950
:10118000086004B010BDC04614E000E0FFFFFF009F
:1011900010E000E0401002403C10024000200240FD
:1011A000F8F4FEFF02030000001002400C100240A1
:1011B00003100440081002403410024000000140B7
:1011C000381002402C100240001000400C1000406B
:1011D00028100040141000402C100040E7030000CD
:1011E00008580140321C20000C5801407047000094
:1011F00080B50F4800688007002818D5FFE70C4924
:1012000008680222904308600A48006800280AD152
:10121000FFE709480068002804D0FFE70648006897
:101220008047FFE702E0FFF723FAFFE7FFE780BD13
:1012300010440140A4070020E807002080B50948B9
:101240000068C00700280BD0FFE70120C043054914
:10125000086005490868401C0860FFF76FFEFFE75B
:1012600080BDC04610100040D407002080B582B079
:1012700015480078002801D1FFE722E013480068F4
:101280000190019800281BD0FFE711480068114920
:101290000968401A00900098002810D0FFE70A491A
:1012A000002008702D4909682D4A11602D490860F9
:1012B000086006490860019900988847FFE7FFE742
:1012C000FFE702B080BDC046B0070020EC07002059
:1012D000B40700204800024080B582B03149402068
:1012E000086021480078002801D1FFE71DE01E4971
:1012F0000020087005210A07116803239943116033
:1013000016490968164A11601649086008600848BD
:10131000006801900198002806D0FFE704490020EA
:10132000086001988047FFE7FFE702B080BDC04634
:10133000F007002005200107086803229043086099
:1013400006480068064908600649002008600860F1
:10135000144A40211160044908707047AC0700200E
:10136000004C004044000240B807002080B50C4803
:101370000068C006002806D5FFE70A49102008606B
:10138000FFF774FFFFE7064800684006002806D50F
:10139000FFE7044940200860FFF79EFFFFE780BD9C
:1013A0001C4C0040204C004083B0029001916946E3
:1013B0000F480880FFE70198002814D0FFE769462E
:1013C0000A880298037810465840C0B24300094882
:1013D000C05A120A504008800298401C029001989E
:1013E000401E0190E7E76846008803B07047C0469A
:1013F000FFFF0000D419000881B001466846017063
:1014000000214056002809D4FFE7684601781F20D4
:1014100001400120884002490860FFE701B07047A1
:1014200080E200E081B0014668460170002140562C
:1014300000280DD4FFE7684601781F2001400120F5
:10144000884004490860BFF34F8FBFF36F8FFFE7F9
:1014500001B0704780E100E081B00146684601704C
:1014600000214056002809D4FFE7684601781F2074
:1014700001400120884020490860FFE701B0704723
:1014800081B001466846017000214056002809D409
:10149000FFE7684601781F20014001208840164977
:1014A0000860FFE701B0704781B0014668460170EF
:1014B00000214056002809D4FFE7684601781F2024
:1014C0000140012088400C490860FFE701B07047E7
:1014D00081B001466846017000214056002809D4B9
:1014E000FFE7684601781F2001400120884002493B
:1014F0000860FFE701B0704700E100E070B582B01E
:10150000024601A80270009100214056002816D41E
:10151000FFE7002401A908570322D3431840744A67
:10152000805809578C07E50EFF24AC40A043009C6F
:10153000A401E4B2AC402043194088501AE001A94C
:1015400008780F24204008380322D3431840674A04
:101550008058002549578D07EE0EFF25B540A8435A
:10156000009DAD01EDB2B540284321400839194036
:101570008850FFE702B070BD70B582B0024601A886
:101580000270009100214056002816D4FFE7002485
:1015900001A908570322D3431840554A80580957D8
:1015A0008C07E50EFF24AC40A043009CA401E4B2EC
:1015B000AC402043194088501AE001A908780F2454
:1015C000204008380322D3431840484A8058002559
:1015D00049578D07EE0EFF25B540A843009DAD018C
:1015E000EDB2B54028432140083919408850FFE743
:1015F00002B070BD70B582B0024601A802700091C1
:1016000000214056002816D4FFE7002401A90857FE
:101610000322D3431840364A805809578C07E50EF9
:10162000FF24AC40A043009CA401E4B2AC402043A2
:10163000194088501AE001A908780F242040083882
:101640000322D3431840294A8058002549578D0763
:10165000EE0EFF25B540A843009DAD01EDB2B540AB
:1016600028432140083919408850FFE702B070BD77
:1016700070B582B0024601A8027000910021405668
:10168000002816D4FFE7002401A908570322D343FA
:101690001840174A805809578C07E50EFF24AC40C4
:1016A000A043009CA401E4B2AC4020431940885000
:1016B0001AE001A908780F24204008380322D343F8
:1016C00018400A4A8058002549578D07EE0EFF251D
:1016D000B540A843009DAD01EDB2B540284321407F
:1016E000083919408850FFE702B070BD1CED00E0DA
:1016F00000E400E086B0059004910392002002907F
:101700000190FFE701980499884233D2FFE70598DA
:101710000199405C0090C02804D0FFE70098DB28C6
:101720000DD019E00399029A501C0290DB208854D6
:101730000399029A501C0290DC20885415E003990A
:10174000029A501C0290DB2088540399029A501C84
:101750000290DD20885408E005980199405C0399C7
:10176000029A531C02938854FFE7FFE70198401C3C
:101770000190C7E70399029A501C0290C020885438
:10178000029806B07047000080B582B0002000903B
:101790000190FFF753FCFEF7B1FEFFF7B9FB00988D
:1017A0002F4908702F4800682F49096848402F4981
:1017B00009684840FFF730FC2D490860FEF7E4FE59
:1017C0002C48FEF7B5FF009A2B482C4B012149020B
:1017D000FFF7D8FAFFF726FBFFE72148007801283A
:1017E00022D0FFE726480168264A116000682A498E
:1017F0000968401A2949884215D3FFE7184800783C
:10180000002804D0FFE72148FFF7D4FBFFE71C487E
:101810000068214908601249002008701C490860CE
:101820001C490870FFE71AE0154800681549096867
:10183000401A1549884211D3FFE70948007800286B
:1018400004D0FFE71148FFF7B5FBFFE7044900208C
:1018500008700F4908600F490870FFE7FFE7BCE711
:10186000D00000209075FF1F9475FF1F9875FF1F13
:10187000CC000020B8190008D1000020F1080008B1
:10188000D4070020DC07002089130000CC190008D1
:10189000BC070020C8000020E0070020B90B0000B2
:1018A00080B586B00590049103920399C02008701A
:1018B0000120029005980499039A521CFFF71AFF21
:1018C00001900199029840180290029806B080BDDC
:1018D00080B584B0029001910092019800280DD04B
:1018E000FFE702980078C02808D1FFE70299019825
:1018F0004018401E0078C02803D0FFE70020039066
:1019000008E00298401C0199891E009A00F005F831
:101910000390FFE7039804B080BD87B00590049161
:101920000392002002900190FFE7019804998842F9
:101930003CD2FFE705980199405CDB282AD1FFE7FC
:101940000198401C0499884203D3FFE700200690C9
:101950002FE005990198401840780090DC2804D0C9
:10196000FFE70098DD2807D00DE00399029A501C8C
:101970000290C020885409E00399029A501C0290FA
:10198000DB20885402E00020069012E00198801CC1
:1019900001900AE0059801994A1C0192405C039964
:1019A000029A531C02938854FFE7BEE70298069000
:1019B000FFE7069807B07047F41000000100000030
:1019C0000100640002000000020064000200000048
:1019D0000200E8030000C1C081C1400101C3C0038F
:1019E000800241C201C6C006800741C70005C1C5CB
:1019F00081C4400401CCC00C800D41CD000FC1CF8B
:101A000081CE400E000AC1CA81CB400B01C9C0097A
:101A1000800841C801D8C018801941D9001BC1DB1A
:101A200081DA401A001EC1DE81DF401F01DDC01DCA
:101A3000801C41DC0014C1D481D5401501D7C017EA
:101A4000801641D601D2C012801341D30011C1D1FA
:101A500081D0401001F0C030803141F10033C1F33A
:101A600081F240320036C1F681F7403701F5C035CA
:101A7000803441F4003CC1FC81FD403D01FFC03F8A
:101A8000803E41FE01FAC03A803B41FB0039C1F97A
:101A900081F840380028C1E881E9402901EBC02BDA
:101AA000802A41EA01EEC02E802F41EF002DC1EDCA
:101AB00081EC402C01E4C024802541E50027C1E7EA
:101AC00081E640260022C1E281E3402301E1C021FA
:101AD000802041E001A0C060806141A10063C1A3FA
:101AE00081A240620066C1A681A7406701A5C065CA
:101AF000806441A4006CC1AC81AD406D01AFC06F8A
:101B0000806E41AE01AAC06A806B41AB0069C1A979
:101B100081A840680078C1B881B9407901BBC07B19
:101B2000807A41BA01BEC07E807F41BF007DC1BDC9
:101B300081BC407C01B4C074807541B50077C1B7E9
:101B400081B640760072C1B281B3407301B1C071F9
:101B5000807041B00050C190819140510193C053B9
:101B6000805241920196C056805741970055C195C9
:101B700081944054019CC05C805D419D005FC19F89
:101B8000819E405E005AC19A819B405B0199C05979
:101B9000805841980188C04880494189004BC18BD9
:101BA000818A404A004EC18E818F404F018DC04DC9
:101BB000804C418C0044C184818540450187C047E9
:101BC000804641860182C042804341830041C181F9
:101BD00081804040F81B0008000000202800000021
:101BE00014010008201C000828000020D80B000069
:101BF000340100080000000015CD5B07313233349A
:101C000035363738396162636465666768696A6B5F
:101C10006C6D6E6F707172737400000000000000D4
:04000005080000B936
:00000001FF
